:020000040800F2
:10000000400A0020355C00083D5C00083F5C0008A9
:10001000415C0008435C0008455C000800000000EB
:10002000000000000000000000000000475C000825
:10003000495C0008000000004B5C0008F312000857
:100040004F5C00084F5C00084F5C00084F5C0008E4
:100050004F5C00084F5C00084F5C00084F5C0008D4
:100060004F5C000827130008411300085D130008C7
:100070004F5C0008791300084F5C00084F5C0008D3
:100080004F5C00084F5C0008000000008F13000860
:100090004F5C00084F5C00084F5C00084F5C000894
:1000A0004F5C00084F5C00084F5C00084F5C000884
:1000B0004F5C0008000000004F5C000800000000DA
:1000C0004F5C0008000000004F5C00084F5C000817
:1000D0004F5C00084F5C00084F5C00080000000007
:1000E00000000000000000004F5C00084F5C0008AA
:1000F0004F5C00084F5C00084F5C00084F5C000834
:100100004F5C000800000000000000004F5C000889
:1001100000000000000000000000000000000000DF
:1001200000000000000000000000000000000000CF
:1001300000000000000000000000000000000000BF
:1001400000000000000000000000000000000000AF
:1001500000000000000000004F5C00084F5C000839
:100160004F5C00084F5C000800F002F800F04AF80D
:100170000AA090E8000C82448344AAF10107DA4502
:1001800001D100F03FF8AFF2090EBAE80F0013F00A
:10019000010F18BFFB1A43F001031847A8740000B1
:1001A000C8740000103A24BF78C878C1FAD8520742
:1001B00024BF30C830C144BF04680C6070470000E1
:1001C0000023002400250026103A28BF78C1FBD860
:1001D000520728BF30C148BF0B607047662906F040
:1001E000B287642905F00287002070471FB506F02A
:1001F000CBF904000020002106F018FFE0601FBDCD
:1002000010B510BD06F0C0FA1146FFF7EFFF00F081
:1002100008F806F0DEFA03B4FFF7F2FF03BC06F0BD
:1002200021FB00F038FE01F046FA01F0E1FA01F09E
:10023000EDFA00F025F802F0FDF803E000F0CDF84B
:1002400001F065FAFAE7000070B50446002000F0FE
:1002500022FD002511E0002000F01DFD642000F0CB
:10026000B6FB4FF4FA7000F016FD142000F0AFFB5F
:10027000002000F010FD681CC5B2A542EBDB70BD8C
:1002800010B5012001F01EF901F0EFF8044624B189
:10029000012C08D0022C12D10BE00220FFF7D4FF72
:1002A00000F062FA0BE00120FFF7CEFF00F076FAD3
:1002B00005E00420FFF7C8FF00F0CAF800BF00BF48
:1002C0006148047000F07DFB5F49486010BD10B5C7
:1002D0005D48407B00B910BD5B48007B98B900F0D9
:1002E00070FB59490969401A57498968884216D9EB
:1002F00000F067FB54490861012153480173002055
:1003000000F0C9FC0BE000F05CFB4F490969401AA2
:100310004D498968884202D900214B48417300BF8A
:10032000D9E770B505460C464748407B012800D107
:1003300070BD01214448417300210173846000F0C5
:1003400040FB41490861284600F0A5FC00BFEFE7EB
:1003500010B501F05BF804463C48B0F81F00A0421D
:1003600010DB00F02EFB38494968401AB0F5FA7FDF
:1003700008D364214FF4FA70FFF7D3FF002001F097
:1003800096FA10BD3148B0F82100A0420CDB00F015
:1003900018FB2D494968401AB0F5FA7F04D3FA21B9
:1003A0004800FFF7BEFFECE72848B0F82300A04262
:1003B0000DDA00F006FB24494968401AB0F5FA7FCF
:1003C00005D34FF47A714810FFF7ABFFD9E700F07F
:1003D000F8FA1D49486000BFD3E710B51A48007805
:1003E00020B1012807D002280DD109E000F0CDF995
:1003F000FFF7AEFF07E000F0E2F9FFF7A9FF02E028
:1004000000F060F800BF00BFFFF761FF03F0D4FB0E
:1004100010BD10B501F029F80446012C03D002F0FC
:1004200025FB01280BD1642000F0D1FA012002F055
:1004300010FB0220FFF708FF002001F043F810BD79
:1004400001484078704700000C0000201401002093
:1004500010B501F071F9C1484078C1494870BF49F1
:10046000C87801F008FABD49887801F007FA012040
:1004700001F01AFA002001F01AFA4FF48050B7493F
:10048000A1F817000020A1F819004FF48050A1F83E
:100490001B000020A1F81D0001F026F8B0490881DA
:1004A00010BD10B5AE480078401CAD490870087802
:1004B000FFF7CAFEAA480078032802DD0320A849F6
:1004C000087010BD2DE9F04100F0CFFF064601F0A5
:1004D00008F8074601F008F805464FF00008A04864
:1004E000007860B9012E05D10220FFF7ADFE002093
:1004F00000F0E8FF022E02D1FFF7D3FF0026984854
:100500000078012873D19548B0F81700B84202DD91
:100510009248A0F817709148B0F81900B84202DA72
:100520008E48A0F819708D48B0F81B00A84202DD73
:100530008A48A0F81B508948B0F81D00A84202DA8A
:100540008648A0F81D50012E4BD18448B0F8170002
:1005500096308249A1F817000846B0F8190096288D
:1005600005DD0846B0F819009638A1F819007B4857
:10057000B0F81B0096307949A1F81B000846B0F886
:100580001D00962805DD0846B0F81D009638A1F834
:100590001D007248B0F817007049B1F81910884270
:1005A00005DD00206D49A1F81700A1F819006B487E
:1005B000B0F81B006949B1F81D10884205DD002024
:1005C0006649A1F81B00A1F81D0065480089A842F2
:1005D00005D100206149A1F81B00A1F81D004FF0D2
:1005E0000108B8F1010F02D1FFF75BFF00265C485C
:1005F000007802287ED100F0E4F95949C968401A10
:1006000041F2883188422CD954480078401C534923
:10061000087008460078052801DD002008700020D9
:1006200001F045F90021084601F0B0F902E064202C
:1006300000F0CDF901F0E0F90028F8D14749087839
:1006400001F0EAF8012001F032F90021084601F03A
:10065000ABF90021142001F099F900F0B2F94049FA
:10066000C86000F0AEF93E49C968401AB0F57A7F1B
:100670003CD901F0C1F938B93948C068A0F51C501F
:1006800010383749C86031E03648B0F8684034481F
:100690008078A0422AD03248808805280FDA304876
:1006A0008078A04204DA2E488088401C2C4988803B
:1006B0002B488078A04202DD002029498880284804
:1006C000C088052810DA26488078A04205DD244835
:1006D000C088401C81B22248C18021488078A04255
:1006E00002DA00211E48C1801D498C7000F069F9B2
:1006F0001B4900E030E0C968401A40F2DC518842F2
:100700000ED91748808805280ADA1548C0880528B8
:1007100006DA1348C068A0F51C5010381049C860AC
:10072000012E19D1002001F0C2F80D49487801F0DE
:10073000BBF80120FFF788FD02E0642000F047F9D4
:1007400001F05AF90028F8D100F0ECFF0420FFF77F
:100750007BFD002000F0B6FEBDE8F0811401002012
:10076000200000204801002010B50B49087801F056
:1007700053F80949C87801F07EF80749887801F0F4
:100780007DF8002001F093F810BD10B5FFF7E0FDF3
:10079000FFF73FFE10BD00001401002010B5154901
:1007A000087801F039F81349C87801F064F8114964
:1007B000887801F063F8012001F079F810BD70B578
:1007C00000F08FFE044600F08FFE0546FFF738FE6E
:1007D00038B90121204601F0D9F80121284601F05D
:1007E000E3F8012002F0E2F8FFF7B2FDFFF711FE97
:1007F00070BD00001401002001460F2902DC4FF0FB
:1008000090407047102903DB1F2901DCFE48F8E700
:10081000202903DB2F2901DCFC48F2E7302903DB28
:100820003F2901DCFA48ECE7402903DB4F2901DCD2
:10083000F848E6E70020E4E70146102904DB1F2919
:1008400002DCA1F11000C1B2202904DB2F2902DC57
:10085000A1F12000C1B2302904DB3F2902DCA1F163
:100860003000C1B2402904DB4F2902DCA1F1400075
:10087000C1B2012088407047014612291ED2DFE82C
:1008800001F0090B0D0F111315171D1D1D1D1D1D49
:100890001D1D191B002070470120FCE70220FAE70C
:1008A0000320F8E70420F6E70520F4E70620F2E746
:1008B0000720F0E70820EEE70920ECE70020EAE750
:1008C0002DE9F04706460C4617461D46012C1BD164
:1008D0003046FFF7B1FF80463046FFF78DFF814677
:1008E00043462A46214603F00FFA3046FFF7A4FF9D
:1008F00080463046FFF780FF814643463A46002156
:1009000003F029FABDE8F0873046FFF795FF8046EF
:100910003046FFF771FF814643462A46214603F0E1
:10092000F3F900BFEEE72DE9F04105460C462846F5
:10093000FFF782FF06462846FFF75EFF074622467E
:10094000314603F02DFABDE8F08170B5044620462B
:10095000FFF772FF05462046FFF74EFF0646294681
:1009600003F025FA70BD0146122928D2DFE801F014
:10097000090C0F1215181B1E2727272727272727A3
:100980002124A54800887047A3484088FBE7A24877
:100990008088F8E7A048C088F5E79F480089F2E71B
:1009A0009D484089EFE79C488089ECE79A48C089D8
:1009B000E9E79948008AE6E79748408AE3E700209C
:1009C000E1E7964880687047944903C9704770B55D
:1009D0000446FFF7F6FF054603F0EEF802E003F0E9
:1009E000EBF800BFFFF7EDFF401BA042F7D370BD4F
:1009F00010B5044602F0F8FD302003F0C1F820469F
:100A000002F046FE02F0FBFD10BD0146086870478B
:100A100070B504460D46002602F0E6FD302003F0D6
:100A2000AFF82946204602F073FE00B9012602F015
:100A3000E6FD304670BD2DE9F04105460E461746ED
:100A400000240AE031592819FFF7E2FF012804D1F8
:100A5000BC4200DD02E0201D04B2F3E700BFBDE8A8
:100A6000F08110B50346002006E01C580C5090425F
:100A700000DD02E0041D20B2F7E700BF10BD10B595
:100A800000EB8002664B43F83210002200EB80033B
:100A9000634C04EBC30383F8262010BD014601EB31
:100AA00081005F4A52F83000704710B5044604EBED
:100AB00084005B4901EBC00090F82600401C04EB69
:100AC0008401574A02EBC10181F8260004EB84003F
:100AD000114601EBC00090F82600202814DA04EB40
:100AE000840001EBC00090F8252004EB840001EBAA
:100AF000C000001D04EB8401494B03EBC10191F8D8
:100B00002610491E42540EE004EB8400444901EBD8
:100B1000C00090F82600401E04EB8401404A02EB1E
:100B2000C10181F82600204601F0F7FE10BD014604
:100B300001EB81003A4A02EBC00090F826007047B2
:100B400030B503461846FFF7F2FF08B9002030BD64
:100B500003EB8300324901EBC000057903EB83000E
:100B600001EBC00090F82600401E03EB83012C4AE5
:100B700002EBC10181F82600002410E003EB8300A2
:100B8000274901EBC000001D611C415C03EB8300A1
:100B9000234A02EBC000001D0155601CC4B21F2C8B
:100BA000ECDD2846D3E770B504460D4604EB84011E
:100BB0001B4A52F83100294604F0ABFD00BF04EB9C
:100BC0008401174A52F8310040F2067104F0D6FF52
:100BD0000028F4D070BD2DE9F04104460E461746BA
:100BE000002500BF24E0715D04EB84020C4B53F838
:100BF000320004F08EFD00BF04EB8401084A52F875
:100C0000310040F206710DE0000400480008004881
:100C1000000C0048001400488000002098000020CC
:100C20003000002004F0AAFF0028E5D0681CC5B2FF
:100C3000BD42D8DBBDE8F08170B505460C4604E046
:100C400021782846FFF7AFFF641C20780028F7D1F1
:100C500070BD7FB505460C462346FEA210216846AE
:100C600005F076F969462846FFF7E6FF7FBDF0B547
:100C700087B005460C46204606F0F4F9F6A2CDE909
:100C80000001102103A805F063F903A92846FFF726
:100C9000D3FF07B0F0BDF14A1080704710B504468D
:100CA000EF480089A04200D110BDED480481014603
:100CB000EC4803F033FF00BFF6E770B5044620466A
:100CC000FFF7BAFD05462046FFF796FD06462B4680
:100CD0000022114603F018F870BD70B50446204696
:100CE000FFF7AAFD05462046FFF786FD06462B4680
:100CF0000022022103F008F82046FFF79DFD05467B
:100D00002046FFF779FD06462B460022114603F0E8
:100D100022F82046FFF790FD05462046FFF76CFDC0
:100D200006462A46022103F05AF870BD10B5044663
:100D3000A1B20022CB4804F0B7F8A1B20022C94802
:100D400004F085F8A1B27022C64804F040F8A1B2C0
:100D50000022C44804F068F810BD70B504460D4682
:100D6000012D0AD1A1B20122BE4804F053F9A1B26B
:100D70000422BC4804F07CF909E0A1B20022B94881
:100D800004F048F9A1B20022B64804F071F970BD30
:100D90002DE9F04104460D462046FFF74DFD06467D
:100DA0002046FFF729FD074633460122022102F0C3
:100DB000ABFF2046FFF740FD06462046FFF71CFD2F
:100DC000074633460322002102F0C5FF2046FFF705
:100DD00033FD06462046FFF70FFD074632462946FB
:100DE00002F0FDFFBDE8F08110B504464FF4E1319B
:100DF000204604F014FC0021204604F04CFC0021A5
:100E0000204604F054FC0021204604F05CFC002144
:100E1000204604F0DEFC0821204604F06AFC042190
:100E2000204604F06EFC204604F059FC10BD70B55D
:100E300005460C46284602F030FA284602F05AFAD7
:100E40004021204604F060FE0221284602F096FB75
:100E50000121284602F089FA284602F05AFA70BDAC
:100E600010B540F61D1003F0F9F908B103F005FACA
:100E7000022140F6FF7002F0C4FE012805D140F6C1
:100E8000FF7002F0A3FE012801D0002010BD02F087
:100E900098FE0120FAE730B59FB0FFF7E1FF08B9EF
:100EA00000BFFEE704F05AFF6F4800686F4AB0FBCE
:100EB000F2F1481EB0F1807F00D31BE0481E4FF0D6
:100EC000E022506150170F22002804DB13071C0E8C
:100ED000674B1C5406E013071D0E664B00F00F0411
:100EE000241F1D5500BF00204FF0E0229061072015
:100EF000106100BF4FF4407002F0AEFF40F211509D
:100F000003F074F840F2125003F070F840F21350FE
:100F100003F06CF840F2165003F068F81B20FFF75E
:100F2000CCFE4120FFF7C9FE2E20FFF7C6FE1C2095
:100F3000FFF782FC04461C20FFF75EFC05462346B3
:100F40000022022102F0E0FE1C20FFF775FC04469F
:100F50001C20FFF751FC05462246022102F03FFF0C
:100F60000820FFF7BAFE0920FFF7B7FE0A20FFF7B7
:100F7000B4FE1D20FFF7B1FE1E20FFF7AEFE1F20BE
:100F8000FFF7ABFE4FF4A06003F030F840F20960C9
:100F900003F02CF84FF4A06003F028F8042003F0CD
:100FA000B8F800220121092002F05BFF002002F0C6
:100FB000B5F80020139030481090002012904FF4A4
:100FC000806011900A2014902C480D9001200F9001
:100FD00000020E904FF4405015900DA9002002F031
:100FE000D8F8002002F059F9002002F083F902211C
:100FF000002002F0C3FA0A21002002F0B6F9002016
:1010000002F087F90A21012001F020FE002211469A
:10101000104601F04CFE00220121084601F047FE77
:1010200000220221084601F042FE00220321084668
:1010300001F03DFE00220421084601F038FE0022A6
:101040000521084601F033FE00220621084601F082
:101050002EFE15E02564000025660000000000203B
:10106000A8000020002C01400800002040420F0092
:1010700000E400E018ED00E0800000204C24014076
:1010800000220721084601F012FE0022082108462E
:1010900001F00DFE00220921084601F008FE0020A3
:1010A00001F0C5FD0121084601F0CAFE4FF46021A0
:1010B000012001F0F1FE01F02EFD01F03AFD02F0F9
:1010C00014F801F0E5FC01F0F6FC01F00FFD012140
:1010D000080201F06BFD40F20B6002F087FFC3488D
:1010E00003F0A0FB0020ADF82800ADF8240020207C
:1010F000ADF8260040F6CA000B900020ADF82A009B
:101100008DF83000B94803F05BFC09A9B74803F03B
:10111000FDFB0220FFF70AFE0120FFF707FE00207B
:10112000FFF704FE0020ADF80A000820ADF80C001F
:101130000020ADF80E004FF40070ADF8100001AAC9
:101140000221AA4803F03AFD01AA0121A74803F0B1
:1011500035FD01AA0021A54803F030FD4FF40060E1
:10116000A3490860401048600020086130200881D1
:101170004FF480504861002048814FF48040C8609F
:101180009A4803F0CBFC994803F010FC00210220A0
:10119000FFF7E3FD00210120FFF7DFFD00210846F6
:1011A000FFF7DBFD002211460D2002F05AFE01215F
:1011B0008E4803F063FC8D4803F0F3FB0023032209
:1011C00001211A20FFF77CFB4FF4E16002F00EFFD3
:1011D000884803F027FB0020ADF81800ADF8140094
:1011E0002020ADF8160040F6CA0007904FF40070BA
:1011F000ADF81A0000208DF820007E4803F0E0FBD7
:1012000005A97C4803F082FB00221146132002F05E
:1012100028FE0121774803F031FC764803F0C1FB3A
:1012200000211620FFF7B4FD00211720FFF7B0FDC5
:1012300040F20E6002F0DAFE4FF4A06002F0D6FE3B
:101240006D48FFF7D1FD002202210A2002F009FEBD
:10125000022001F063FF00201C90684819900020D4
:101260001B901A9001201D90634824301690012095
:101270001890002017904FF440501E9016A902209D
:1012800001F087FF5C490220FFF7D1FD0121022018
:10129000FFF77EFD01210320FFF77AFD40F2117078
:1012A00002F0A4FE4FF4A06002F0A0FE5448FFF745
:1012B0009BFD002202210B2002F0D3FD042001F04F
:1012C0002DFF4E48283019904D482430169016A90D
:1012D000042001F05EFF4A490420FFF7A8FD4649BB
:1012E0000020FFF7CCFB46490120FFF7C8FB1FB0E9
:1012F00030BD4448C068B0F57A7F06D34148806865
:10130000401C404988600020C8603E48C068401CBE
:101310003C49C8600846D0E900305A1C40F1000042
:10132000C1E90020704710B50221002002F0BBF88F
:1013300028B100F063F90221002002F016F910BD77
:1013400010B50221084602F0AEF830B10020FFF7D8
:10135000ACFB0221084602F008F910BD10B50221CD
:10136000042002F0A0F830B10120FFF79EFB02211B
:10137000042002F0FAF810BD10B5012001F0AAFD1A
:1013800001F036F80121194803F08CFB10BD10B5AF
:101390001D480088F0B11C484088401C1A4948800C
:1013A00008460088A02190FBF1F01749498891FB7D
:1013B000F0F200FB121088B91348007908B9012037
:1013C00000E0002010490871084601791A20FFF753
:1013D000AAFA03E000211A20FFF7A5FA01F00CF8A1
:1013E0000121044803F05EFB10BD0000002C014009
:1013F000A8000020002000400038014055000020D7
:1014000000440040980000200000002010B5042097
:10141000FFF7A9FA00EB80004000BD49B1F82710A2
:1014200090FBF1F080B210BDBA48B0F90E007047E1
:10143000B948B0F90A007047B748B0F916007047CC
:10144000B548B0F92200704710B51B20FFF77DFAB0
:1014500004464120FFF779FA04EB40042E20FFF701
:1014600074FA04EB8000C0B210BD70B5FFF7A9FAA2
:10147000054600242F20FFF768FA012820D114E048
:1014800084B9FFF79EFA401B40F6C411884209D385
:101490004810FFF700FC6420FFF799FA0020FFF7DF
:1014A000FAFB01240120FFF792FA2F20FFF74DFAF3
:1014B0000128E5D0012C01D1022070BD0120FCE7FC
:1014C0000020FAE710B5044621461220FFF72BFA58
:1014D0000CB900BFFEE710BD10B54020FFF735FA8C
:1014E00010BD8E48C08970478D48C08970477047CD
:1014F00010B5FFF766FA87490968401A0F2827D9FF
:101500008448808940B98348806882494968B0FB33
:10151000F1F000B27F4988817E4880687D49496842
:10152000B0FBF1F07B498989401A00EB8000400054
:1015300004B27748B0F8290094FBF0F000B2754986
:10154000C881002088604860FFF73BFA7149086055
:101550000620FFF708FA6F49896808446D498860DA
:1015600008464068401C486010BD10B5FFF729FAD6
:101570006A490968401A32280ED968488068674964
:101580008988B0FBF1F065498881002088608880F7
:10159000FFF717FA614908600020FFF7E4F95F4997
:1015A000896808445D49886008468088401C8880B6
:1015B00010BD10B5FFF705FA59490968401A3228DD
:1015C0000ED95748806856498988B0FBF1F05449D4
:1015D0008881002088608880FFF7F3F9504908600F
:1015E0001120FFF7C0F94E49896808444C498860CA
:1015F00008468088401C888010BD704710B5FFF7F2
:1016000077FFFFF7B2FFFFF7D4FFFFF7F6FF10BD3C
:10161000424AD28911B2424AD28910B23F4A9289D3
:101620003E4BDB899A420BDD394A92F825200A4469
:1016300011B23A4A92898A4202DA384AD28911B200
:10164000364A9289354BDB899A420BDA304A92F856
:1016500025208A1A11B2314A92898A4202DD2F4A24
:10166000D28911B22D4BD9812D4A92892C4BDB891D
:101670009A420BDD264A92F82620024410B2284AEC
:101680009289824202DA264AD28910B2244A928989
:10169000234BDB899A420BDA1D4A92F82620821AE4
:1016A00010B21F4A9289824202DD1D4AD28910B2CD
:1016B0001B4BD881704710B5002301220321184627
:1016C000FFF7FEF80023012203211120FFF7F8F8AD
:1016D0000023012203210420FFF7F2F80023012256
:1016E00003210620FFF7ECF8002301221146122007
:1016F000FFF7E6F80023012219464020FFF7E0F843
:101700000023012219462F20FFF7DAF810BD704799
:1017100014010020C0000020F0000020D0000020B4
:10172000E000002010B53748FFF762F92C22364957
:101730003448FFF780F910BD0220334908700020BB
:1017400048708870C8700120087100204871C87105
:101750003220A1F809004FF4FA70A1F80B0006201E
:1017600008726420A1F80D009620A1F80F001E2039
:1017700088714FF47A60A1F811006420A1F8130079
:10178000A1F815000020A1F8170040F6E570A1F8B7
:1017900019000020A1F81B0040F6E570A1F81D001B
:1017A0004FF4A570A1F81F004FF4AA70A1F8210012
:1017B0004FF4D270A1F82300052081F8250081F8AC
:1017C00026002820A1F827000320A1F8290070474F
:1017D00010B50C48FFF719F9401C18B9FFF7ACFF1A
:1017E000FFF7A0FF2C2208490648FFF73AF910BD81
:1017F00010B5FFF7EDFF10BD10B50248FFF7F8F880
:1018000010BD0000CCF90008140100207047FE4B09
:10181000D86019615A61704710B50446062C28D269
:10182000DFE804F003090F151B210222012100202B
:10183000FFF7EDFF1DE0012202210020FFF7E7FF87
:1018400017E0022200210120FFF7E1FF11E0002252
:1018500002210120FFF7DBFF0BE001220021022023
:10186000FFF7D5FF05E0002201210220FFF7CFFF9F
:1018700000BF00BF10BDE549C8707047E3498870DC
:10188000897859B1012905D002290BD1E04ADE49F6
:101890008A6307E0DF4ADC498A6303E0DE4ADA490B
:1018A0008A6300BF00BF7047D8494870704710B5C1
:1018B0000446D54880F8304090F830100220FFF7F9
:1018C0004CFAD14890F830100120FFF746FACE4884
:1018D00090F830100020FFF740FA10BDCB49487156
:1018E000704710B501460020C84AB2F817208A4256
:1018F00002DDC64AB2F81710C44AB2F819208A426B
:1019000002DAC24AB2F81910C04A527822B1012A4A
:1019100014D0022A38D124E0BC4AB2F81920BB4BBB
:10192000B3F81730D31AB94AB2F817208A1A40F21E
:101930006544624392FBF3F290B225E0B34AB2F8F9
:1019400017208A1AB14BB3F80F305A43AF4BB3F894
:101950001930AE4CB4F817401B1B92FBF3F290B257
:1019600012E0AA4AB2F817208A1AA84BB3F811302D
:101970005A43A64BB3F81930A44CB4F817401B1BBC
:1019800092FBF3F290B200BF00BF10BD30B5044629
:101990000D46012D03D12046FFF7A3FF044621B2D7
:1019A0009948A0F8441030BD10B5012921D1974ABB
:1019B000B2F81D20824202DA944AB2F81D00934A1E
:1019C000B2F81B20824202DD904AB2F81B008F4A17
:1019D000B2F81B20821A8D4BB3F813305A438B4B4D
:1019E000B3F81D30894CB4F81B401B1B92FBF3F27B
:1019F00090B2854A508610BD8348B0F8580080B236
:101A00007047814890F82E0070477F48808D70475E
:101A1000014611B97C4800687047012902D17A4813
:101A20004068F9E778488068F6E77748B0F94800F9
:101A300070477548006E08B9002070470120FCE728
:101A4000714890F86400704710B5FFF7FDFC04463C
:101A50006E48C078012805D1704830F814006A49F2
:101A6000A1F868006948C07828B96D4830F81400BA
:101A70006549A1F8680010BD2DE9F05FFEF7A4FFED
:101A800004460D466049D1E91401261A65EB0103AD
:101A900032466448002104F0E3F980460622002320
:101AA00004F0DEF9824659488679324600235046D2
:101AB00004F0D6F93C21A0FB01015349C8650A4650
:101AC000C2E91445BDE8F09F70B54F48008B4E4900
:101AD000B1F86810884250D04B48C1690162006A71
:101AE0004EF66021B1FBF0F147484162002181626E
:101AF000C161008BB0F5967F07D14348B0F868000C
:101B000018B9414880F82E101DE03F48008B50B9AD
:101B10003D48B0F86800B0F5967F04D101213A48FD
:101B200080F82E100FE03848008B3749B1F8681064
:101B3000884204DA0021344880F82E1003E00121A5
:101B4000314880F82E103048B0F86840FFF794FF15
:101B50002D48016E006A814204D201212A4880F892
:101B6000641003E00221284880F864102648016AC6
:101B70000166B0F86800244908832348816A406AF6
:101B800001442148816290F82E00F0B91E48806A15
:101B90004FF47A71B0FBF1F01B49B1F868104418AA
:101BA0001948B0F868003C30A0420ED8B4F5B47FB4
:101BB00001D3002404E01448B0F8680000F13C04AC
:101BC00000211148416280F864100F4890F82E00FF
:101BD000012839D10C48B0F8680020B94FF4B4702E
:101BE0000949A1F868000848806A4FF47A71B0FB8F
:101BF000F1F00549B1F868100C1A0348B0F8680014
:101C00003C38A04218D30FE0480100201401002006
:101C1000447400086C710008D87200085C710008F8
:101C20004C71000840420F00FA48B0F86800A0F17B
:101C30003C040021F748416234B94FF4B4740021E8
:101C4000F448416280F86410FEF7BEFEF14BD3E920
:101C500014230546AA1A61EB0300EF4B00219A1AE0
:101C600081410AD20021EB488165B0F86810818576
:101C70000021C16180F8641001E0E6488485E548F0
:101C8000C069401CE349C86170BD0146B1F5B47F2D
:101C900006DDE048826BA1F5B47052F82000704771
:101CA000B1F5877F0ADDDB48806B00F5B470A1F5E4
:101CB0008772A0EB820000684042F0E7B42907DD9C
:101CC000D448826BA1F1B40052F820004042E6E70C
:101CD0005A2909DDCF48806B00F5B470A1F15A0292
:101CE000A0EB82000068DAE7CA48806B50F8210058
:101CF000D5E700B5C748808D03B203F13C0003B2BD
:101D0000C448B0F94800002806DDA3F11E00C1490F
:101D1000898E084403B205E0BE48818E03F11E009F
:101D2000401A03B2B3F5B47F02DDA3F5B47003B279
:101D30001846FFF7AAFFB749B1F94810484340F2E7
:101D4000654190FBF1F0B349086003F1780003B2FC
:101D5000B3F5B47F02DDA3F5B47003B21846FFF704
:101D600094FFAC49B1F94810484340F2654190FBFB
:101D7000F1F0A849886003F1780003B2B3F5B47FAD
:101D800002DDA3F5B47003B21846FFF77EFFA14948
:101D9000B1F94810484340F2654190FBF1F09D498C
:101DA000486000BD10B5FFF74FFEFFF78DFEFFF74F
:101DB000A0FF9848006800F265429648808981B289
:101DC000964803F031F89348406800F26542914824
:101DD000008A81B2914803F027F88E48806800F2AB
:101DE00065428C48808A81B28C4803F01DF810BD92
:101DF00010B5FFF719FB04460A2C0ADCFFF719FEA1
:101E000038B1FFF71DFE012803D1A4F1640000B230
:101E100010BD2046FCE770B5FFF7EAFF0446002539
:101E20007C48B0F868007E490988884205D00125C1
:101E30007848B0F868007A4908807A4840780028E5
:101E400008D17848B0F80F0028B97248B0F84410AB
:101E5000A0F84610D0E06F48408E002836DD71486B
:101E6000B0F81300002822DD6A48408E4042A042AC
:101E70000DDA6848B0F94600002827DD6548B0F85B
:101E80004600401E01B26348A0F846101EE06148BB
:101E9000B0F9460040F26541884217DA5D48B0F873
:101EA0004600401C01B25B48A0F846100EE05948BD
:101EB000B0F94610B0F94400814207DD5548B0F84A
:101EC0004600401E01B25348A0F846105148B0F9F0
:101ED000440000284ADD4F48408EE8BB5148B0F826
:101EE0000F00A0422EDD4B48B0F94410B0F9460077
:101EF000814216DD4748B0F9460040F2654188420C
:101F000020DA4448B0F94610B0F94400814219DAA9
:101F10004048B0F84600401C01B23E48A0F84610C8
:101F200010E0002C0EDA3B48B0F94610B0F944003E
:101F3000814207DD3748B0F84600401E01B23548FF
:101F4000A0F846103748B0F80F00A0420EDA31482A
:101F5000B0F94600002800E008E007DD2D48B0F8A1
:101F60004600401E01B22B48A0F846102948408E7A
:101F700068BB2C48007901282AD12648B0F84400D3
:101F800070B9002C0CDD2348B0F94600002807DDAD
:101F90002048B0F84600401E01B21E48A0F8461086
:101FA0001C48B0F8440090B9002C25DC012D23D149
:101FB0001848B0F9460040F2654188421CDA1548DD
:101FC000B0F84600401C01B21248A0F8461013E0D9
:101FD0001048B0F94410B0F9460081420CDA0D48BF
:101FE000B0F94600002807DD0A48B0F84600401E58
:101FF00001B20848A0F846100A484078012807D1E5
:102000000848B0F80F0078B900210248A0F846103F
:10201000AEE0000048010020A0860100002C014035
:102020000600002014010020F948408E002829DD18
:10203000FFF7E2FC002825DDF648B0F81300002881
:1020400012DDF348408E4042A04224DAF048B0F955
:10205000460000281FDDEE48B0F84600401E01B2E1
:10206000EB48A0F8461016E0E948B0F94600002811
:1020700011DDE748B0F84600401E01B2E448A0F880
:10208000461008E0E248B0F94600002803DA0021D3
:10209000DF48A0F84610DE48B0F94400002828DDEB
:1020A000DB48408E28BBDA48B0F94400A0420EDD80
:1020B000D748B0F9460040F26541884207DAD44873
:1020C000B0F84600401C01B2D148A0F84610D048F4
:1020D000B0F94400A0420CDACD48B0F9460000281F
:1020E00007DDCB48B0F84600401E01B2C848A0F852
:1020F0004610C748408E68BBC648007901282AD1DF
:10210000C348B0F8440070B9002C0CDDC048B0F9E9
:102110004600002807DDBE48B0F84600401E01B268
:10212000BB48A0F84610BA48B0F8440090B9002C5B
:102130001EDC012D1CD1B648B0F9460040F26541C5
:10214000884215DAB248B0F84600401C01B2B048E7
:10215000A0F846100CE0AE48B0F94600002807DDB4
:10216000AB48B0F84600401E01B2A948A0F846109E
:10217000A8484078022807D1A648B0F80F0020B937
:102180000021A348A0F84610CAE0A148408E0028CC
:102190003BDDA048B0F81300002822DD9C48408EAB
:1021A0004042A0420DDA9A48B0F9460000282CDDE2
:1021B0009748B0F84600401E01B29548A0F8461076
:1021C00023E09348B0F9460040F2654188421CDAAA
:1021D0008F48B0F84600401C01B28D48A0F8461068
:1021E00013E0FFF709FC8A49B1F9441088420CDD7D
:1021F0008748B0F94600002807DD8548B0F846005A
:10220000401E01B28248A0F846108148B0F944004F
:1022100000283FDD7E48408EE0BB7E48B0F80F00CE
:10222000A04225DDFFF7E8FB7949B1F94410884267
:102230000FDA7748B0F9460040F26541884217DA74
:102240007348B0F84600401C01B27148A0F846102F
:102250000EE0002C0CDA6E48B0F94600002807DDCD
:102260006B48B0F84600401E01B26948A0F846101D
:102270006848B0F80F00A0420CDA6548B0F9460093
:10228000002807DD6248B0F84600401E01B26048F1
:10229000A0F846105E48408E68BB5E480079012871
:1022A0002AD15B48B0F8440070B9002C0CDD5848C6
:1022B000B0F94600002807DD5548B0F84600401E3A
:1022C00001B25348A0F846105148B0F8440090B904
:1022D000002C25DC012D23D14D48B0F9460040F2F9
:1022E000654188421CDA4A48B0F84600401C01B2F9
:1022F0004748A0F8461013E04548B0F94410B0F93B
:10230000460081420CDA4248B0F94600002807DD59
:102310003F48B0F84600401E01B23D48A0F84610C4
:102320003C48C079012848D13A48B0F80F0000284D
:1023300043DDFEF746FB3649C96B401A32283CD9CB
:10234000FFF75AFB3349B1F80B10884226DB3048BF
:10235000B0F94400002821DD2D48408EF0B92D4809
:10236000B0F80900A0420DDD2948B0F93400294930
:10237000097A88421DDA2648808E401C01B2244822
:10238000818616E02248B0F93400002811DD20488B
:10239000808E401E01B21E4881860AE01C48B0F9BA
:1023A0003400002805DD1A48808E401E01B218480E
:1023B0008186FEF706FB1649C8631548B0F846103B
:1023C000A0F8481070BD1248C16D806D814204D2E2
:1023D0000F48806D401E0E4988650D48C16D806DA7
:1023E000814204D90A48806D401C094988657047BC
:1023F00010B5FFF7D7FC10BD10B50548006C401CA8
:10240000034908640846006C0A2805D210BD000084
:102410004801002014010020002105480164FFF755
:10242000FAFCFFF7D0FFFFF7F3F800BFEEE700007C
:102430004801002010B50020FE490870FEF7C1FADF
:10244000FC49486010BDF0B502460D46002010E082
:1024500012F8014B08210AE080EA040606F00103A5
:1024600040100BB180F08C0064104E1EF1B20029B8
:10247000F2D12E1EA5F10107FDB2E9D1F0BD10B5D4
:10248000044604EB840101EBC402EA490831501808
:102490000A21FFF7D8FF04EB840101EBC402E549F0
:1024A00008311144C872F0212046FEF77CFB04EB92
:1024B000840000EBC402DF48083011180D222046CA
:1024C000FEF789FB10BD10B5044604EB840000EB59
:1024D000C401D8480830405C0E2837D2DFE800F04D
:1024E00036376BA1FB07F9F8F7F6F5F4F3F20021A4
:1024F00004EB840000EBC402CE4808301044A0F87E
:10250000011004EB840000EBC402CA4808301044F8
:10251000A0F8031004EB840000EBC402C5480830A7
:102520001044417104EB840000EBC402C148083040
:102530001044817104EB840000EBC402BD480830F4
:102540001044A0F807102046FFF799FFE3E10420AC
:10255000FEF709FA04EB840101EBC402B549083126
:102560001144A1F801000620FEF7FDF904EB8401F7
:1025700001EBC402AF4908311144A1F80300002067
:10258000FEF7F1F904EB840101EBC402A94908311B
:102590001144A1F805001120FEF7E5F904EB8401D0
:1025A00001EBC402A34908311144A1F807002046F9
:1025B000FFF765FFAFE1FEF747FF04EB840101EB96
:1025C000C4029C49083111444870FEF72DFF04EB0A
:1025D000840101EBC4029749083111444880FEF799
:1025E00015FF04EB840101EBC40292490831114448
:1025F0008880FEF776FF04EB840101EBC4028D496D
:1026000008311144C880FEF76FFF04EB840101EB31
:10261000C40288490831114408812046FFF72FFF82
:1026200079E1FFF7E9F904EB840101EBC402814988
:1026300008311144A1F80100FFF7E7F904EB840128
:1026400001EBC4027B4908311144A1F80300FFF7F4
:10265000ECF981B204EB840000EBC4027548083049
:102660001044A0F80510FFF7CCF904EB840101EB4E
:10267000C402704908311144C8711B20FEF765F986
:1026800004EB840101EBC4026A4908311144087269
:102690004120FEF75AF904EB840101EBC4026549BD
:1026A0000831114448722E20FEF74FF904EB8401E3
:1026B00001EBC4025F490831114488722046FFF7DC
:1026C000DEFE28E103E1F7E0D6E069E064E05DE0EA
:1026D00044E02BE0FFE70020FFF79AF901B204EB9A
:1026E000840000EBC402534808301044A0F80110E5
:1026F0000120FFF78DF901B204EB840000EBC40266
:102700004C4808301044A0F803100220FFF780F96D
:1027100001B204EB840000EBC402464808301044C8
:10272000A0F805102046FFF7AAFEF4E004EB8401B0
:1027300001EBC4023F4908311144D1F80100FEF712
:1027400064F904EB840101EBC4023A4908311144F5
:10275000C1F805002046FFF792FEDCE004EB84029E
:1027600002EBC403334A08321A44D2F8051004EBD2
:10277000840202EBC4032F4A08321A44D2F8010043
:10278000FEF746F92046FFF77AFEC4E0FFF734F87B
:102790002046FFF774FEBEE0012026494870BAE0EB
:1027A00004EB840000EBC40122480830084480791F
:1027B0002149487008464078012821D104EB840162
:1027C00001EBC4021B4908311144B1F8010000219A
:1027D000FFF7DCF804EB840101EBC4021549083172
:1027E0001144B1F803000021FFF7DEF804EB840187
:1027F00001EBC4020F49083111444879FFF757F83B
:1028000004EB840000EBC4010A4808300844C07996
:10281000012830D1FEF708FE04EB840101EBC4026D
:10282000044908311144A1F80100FEF7EFFD04EB63
:10283000840103E0B80100200C00002001EBC40279
:102840008C491144A1F80300FFF7D6F804EB84018A
:1028500001EBC40287491144A1F80500FFF7D1F844
:1028600004EB840101EBC40282491144A1F8070082
:102870002046FFF704FE4EE03A2104EB840000EB13
:10288000C4027C48104441704FF0006104EB8400A6
:1028900000EBC40277481044C0F802104FF47A41AC
:1028A00004EB840000EBC40272481044C0F8061028
:1028B0002046FFF7E4FD2EE0FEF78AFF96214FF455
:1028C0002F70FDF72EFD2046FFF7D9FD23E06A4863
:1028D000B0F8461004EB840000EBC40265481044D5
:1028E000A0F801106448B0F8441004EB840000EB39
:1028F000C40260481044A0F803105F48418E04EB06
:10290000840000EBC4025B481044A0F80510204688
:10291000FFF7B5FD00BF00BF10BD70B504462046EF
:10292000FEF705F90646002E00DC70BD5148083858
:10293000007848B92046FEF703F9F02803D10120BA
:102940004C4908390870F0E74A48083800780128EF
:102950002AD10C2E28DB00250BE02046FEF7F0F8EC
:1029600004EB840101EBC402424911444855681C40
:10297000C5B20B2DF1DD04EB840101EBC4023D492E
:1029800050180A21FFF75FFD04EB840101EBC4023C
:1029900038491144C97A884202D12046FFF793FD95
:1029A000002034490839087000BFBEE710B504465E
:1029B000FEF707F82F4908394968401A642800D201
:1029C00010BD0A2104EB840000EBC40229488152A7
:1029D0002948B0F8440081B204EB840000EBC40243
:1029E00024481044A0F801102348418E04EB8400D1
:1029F00000EBC4021F481044A0F803101E4890F8D2
:102A0000301004EB840000EBC4021A4810444171FA
:102A1000012104EB840000EBC402164810448171CC
:102A2000002104EB840000EBC40212481044C17181
:102A300004EB840000EBC4020E48104401722046EF
:102A4000FFF71DFDFDF7BDFF0A490839486000BFCB
:102A5000B6E710B50446092104EB840000EBC4027C
:102A6000044881522046FFF70AFD10BD014808388E
:102A700040787047C00100204801002010B540F2A6
:102A8000093001F0EBFA40F2093001F0F5FA10BD1F
:102A9000FE48006800F0010028B9FC48006840F0DA
:102AA0000100FA4908607047F848006820F001000A
:102AB000F64908607047F548006840F00800F3499F
:102AC000086000BFF148006800F008000028F9D154
:102AD000EE48006840F00400EC49086000BFEB4895
:102AE000006800F004000028F9D17047E74800684A
:102AF00040F48070E54908607047E448006820F4BD
:102B00008070E24908607047E048006840F40000C7
:102B1000DE4908607047DD48006820F40000DB49AA
:102B200008607047D948006840F08070D749086055
:102B30007047D648006820F08070D449086070471C
:102B400010B5D24A121F126822F4C052CF4B1B1F7D
:102B50001A60012804D002281BD0042822D122E0C8
:102B6000CA4A121F126822F46042C84B1B1F1A6027
:102B70001A4612684B1E4FF4604404EA43331A436A
:102B8000C24B1B1F1A601A46126842F400621A6098
:102B90000AE0BE4A121F126842F48052BB4B1B1F50
:102BA0001A6001E000BF00BF00BF10BDF9B100F422
:102BB00080723AB1B54A121F126842F48072B34B68
:102BC0001B1F1A6000F480623AB1B04A121F1268EB
:102BD00042F48062AD4B1B1F1A6000F002022AB360
:102BE000AA4A126842F00202A84B1A601EE000F4E2
:102BF00080723AB1A54A121F126822F48072A34B68
:102C00001B1F1A6000F480623AB1A04A121F1268BA
:102C100022F480629D4B1B1F1A6000F002022AB151
:102C20009A4A126822F00202984B1A60704730B13B
:102C30009649096841F40061944A116005E093499E
:102C4000096821F40061914A1160704710B50128AC
:102C500002D0022828D113E08C4A2432126822F4D0
:102C600070028A4B24331A601A4612684B1E4FF4C6
:102C7000700404EA03531A43844B24331A6014E0AB
:102C8000824A3032126822F44012804B30331A608C
:102C90001A4612684B1E4FF4401404EA03531A43B9
:102CA0007A4B30331A6000E000BF00BF10BD70B532
:102CB0001446122900D10021062810D2734D2C355C
:102CC0002A6800EB80061F25B540AA4300EB80056B
:102CD00001FA05F52A436D4D2C352A602AE00C28AF
:102CE00012D26A4D28352A68851F05EB85061F25F7
:102CF000B540AA43851F05EB850501FA05F52A4372
:102D0000624D28352A6015E0102813D25F4D243516
:102D10002A68A0F10C0505EB85061F25B540AA43DE
:102D2000A0F10C0505EB850501FA05F52A43574D81
:102D300024352A600A2910D2544D08352B6801EB3E
:102D400041060725B540AB4301EB410504FA05F503
:102D50002B434E4D08352B6015E0122913D24B4DF5
:102D60002D1D2B68A1F10A0505EB45060725B54089
:102D7000AB43A1F10A0505EB450504FA05F52B4324
:102D8000424D2D1D2B6070BDF0B503463F4E3036D1
:102D90003668C6F301553D4E30363468EE1A06EB00
:102DA0008606C6F10F071F26BE40B443EE1A06EB97
:102DB0008606C6F10F0601FA06F63443334E303666
:102DC00034600A2910D2314E0836306801EB4107D1
:102DD0000726BE40B04301EB410602FA06F6304337
:102DE0002A4E0836306015E0132913D2274E361DBF
:102DF0003068A1F10A0606EB46070726BE40B0433D
:102E0000A1F10A0606EB460602FA06F630431F4E0B
:102E1000361D3060F0BD30B5024600201B4C30340A
:102E20002468C4F301539C1AC4F10300032806D894
:102E30008000C1F30B04164D0544C5F8144430BDA1
:102E400091B100F001022AB1104A126842F48012D6
:102E50000E4B1A6000F00202EAB10C4A126842F40A
:102E600000420A4B1A6016E000F001022AB1074A3C
:102E7000126822F48012054B1A6000F0020252B16F
:102E8000024A126822F40042004B03E00824014089
:102E9000002001401A607047012802D0022816D194
:102EA0000AE09B4A126822F46022994B1A601A4683
:102EB00012680A431A600BE0954A126822F4E04255
:102EC000934B1A601A4612680A431A6000E000BF6A
:102ED00000BF704700F0010129B18D49096841F434
:102EE00080018B4A116000F0020129B1884909680C
:102EF00041F40011864A11607047854844300068EB
:102F000080B27047024632B1012A08D0022A0AD0A4
:102F1000032A10D10BE07E48343001680DE07C4874
:102F20003830016809E07A483C30016805E07848AB
:102F30004030016801E0002100BF00BF88B2704747
:102F400001460020724A083A12680A4002B1012084
:102F500070476F490839096881436D4A083A116022
:102F6000704702460020012A04D0022A10D0042A09
:102F70002AD11BE0664B083B1B6803F00101644B40
:102F80001B1F1B6803F040030BB101B101201CE0C3
:102F90005F4B083B1B6803F002015D4B1B1F1B6866
:102FA00003F020030BB101B101200EE0584B083BA8
:102FB0001B6803F00401564B1B1F1B6803F08003C2
:102FC0000BB101B1012000E000BF00BF70475049C4
:102FD0000839096881434E4A083A1160704700F089
:102FE000010139B14A49091F096841F04001484AC5
:102FF000121F116000F0020139B14549091F09682B
:1030000041F02001424A121F116000F0040139B161
:103010003F49091F096841F080013D4A121F1160B4
:10302000704700F0010139B13949091F096821F0E1
:103030004001374A121F116000F0020139B13449D2
:10304000091F096821F02001314A121F116000F0A8
:10305000040139B12E49091F096821F080012C4A69
:10306000121F116070472A49091F0968294A114037
:10307000274A121F11601146096801431160114669
:103080000968254A1143224A121F116070472049DE
:10309000091F09681F4A1F3211401D4A121F116083
:1030A000012804D002280BD003281BD111E01849B5
:1030B000091F096841F40001154A121F116012E04E
:1030C0001349091F096841F48001114A121F116058
:1030D00009E00F49091F096841F440010C4A121F19
:1030E000116000E000BF00BF70470948001F006882
:1030F000084908400649091F08607047C0F30B02E1
:10310000034B20331A60C1F30B021B1F1A60704778
:1031100008240140E0FD3FFF0002C00000EB8001F9
:10312000FA4A02EB8101896821F0010100EB80027B
:10313000F64B03EB82029160002100EB800203EB6F
:103140008202916000EB800203EB8202D16000EB0F
:10315000800203EB8202116100EB800203EB82022A
:1031600051611946496883000F229A401143E74A8A
:1031700051607047002101604160012181600021A0
:10318000C16001610121416100218161C161016270
:10319000704730B500EB8004DC4D05EB84040B6810
:1031A000236100EB800405EB8404CB68636100EBD2
:1031B000800405EB8404CB69E36000EB80032C46BC
:1031C00004EB83039A6822F47C520C694B68234316
:1031D0000C6A23431A4300EB80032C4604EB830361
:1031E0009A608B6863B900EB800304EB83039B68F0
:1031F00043F0400300EB800405EB8404A3600DE082
:1032000000EB8003C14C04EB83039B6823F0400375
:1032100000EB8004BD4D05EB8404A3604B6973B9DA
:1032200000EB8003B94C04EB83039B6843F08003FD
:1032300000EB8004B54D05EB8404A3600DE000EBCA
:103240008003B24C04EB83039B6823F0800300EB04
:103250008004AE4D05EB8404A3608B6973B900EB69
:103260008003AA4C04EB83039B6823F0100300EB5C
:103270008004A64D05EB8404A3600DE000EB800301
:10328000A24C04EB83039B6843F0100300EB800423
:103290009E4D05EB8404A36030BD00EB80019B4A8A
:1032A00002EB8101896841F0200100EB8002974B1D
:1032B00003EB82029160704700EB8001934A02EBBE
:1032C0008101896821F0200100EB80028F4B03EB24
:1032D00082029160704700EB80018C4A02EB810111
:1032E000896841F4804100EB8002884B03EB820245
:1032F0009160704700EB8001844A02EB810189688C
:1033000021F4804100EB8002804B03EB820291604C
:10331000704700EB80017D4A02EB8101896841F032
:10332000010100EB8002794B03EB82029160704750
:1033300000EB8001754A02EB8101896821F00101EF
:1033400000EB8002714B03EB82029160704700EB4F
:1033500080026E4B03EB82021161704700EB80022A
:103360006A4B03EB82025161704700EB8002674BAE
:1033700003EB8202D1607047014601EB8100634A92
:1033800002EB8000C068704710B50A4600EB80036E
:103390005E4C04EB8303996821F44051114300EB28
:1033A000800304EB8303996010BD10B50A4600EB5F
:1033B0008003564C04EB8303996821F44061114368
:1033C00000EB800304EB8303996010BD10B50A463F
:1033D00000EB80034D4C04EB8303996821F44071AA
:1033E000114300EB800304EB8303996010BD00EBF5
:1033F0008001464A02EB8101896841F0800100EBBF
:103400008002424B03EB82029160704700EB800127
:103410003E4A02EB8101896821F0800100EB8002C5
:103420003A4B03EB82029160704700EB8001374A10
:1034300002EB8101896841F0400100EB8002334BCF
:1034400003EB82029160704700EB80012F4A02EB90
:103450008101896821F0400100EB80022B4B03EBD6
:1034600082029160704710B571B900EB8002274B62
:1034700003EB8202926822F0100200EB8003234CDF
:1034800004EB83039A600DE000EB80021F4B03EB1B
:103490008202926842F0100200EB80031B4C04EBA6
:1034A00083039A6010BDF0B50246002300240F2567
:1034B0000E2601293ED0022904D0042914D008295F
:1034C0004AD125E011480068970001FA07F700EAA1
:1034D00007049000C44002EB82000C4F07EB800011
:1034E000806800F0020338E008480068970001FA9D
:1034F00007F700EA07049000C44002EB8200034F84
:1035000007EB8000806800F0040326E00000024022
:1035100034480068970001FA07F700EA07049000B2
:10352000C44002EB82002F4F07EB8000806800F060
:10353000080312E02B480068970005FA07F700EA35
:1035400007049000C44002EB8200264F07EB800086
:10355000806800EA060300E000BF00BF04EA030041
:1035600008B10120F0BD0020FCE71E4A526883002C
:1035700001FA03F31A431B4B5A60704710B500EB76
:103580008002184B03EB820292680A4300EB80032F
:10359000144C04EB83039A6010BD10B500EB80025D
:1035A000104B03EB820292688A4300EB80030D4CC0
:1035B00004EB83039A6010BD10B50246094B1B68EB
:1035C000940001FA04F423400BB1012000E0002034
:1035D00010BD044A5268830001FA03F31A43014BF9
:1035E0005A60704700000240F948006900F080000E
:1035F00020B1F848F6494860F74848607047F448F9
:10360000006940F08000F24908617047F04A116893
:1036100021F0070141EA0002ED4B1A607047EC48C7
:10362000FC30006840F00100E949C1F8FC00704737
:10363000E748FC30006820F00100E549C1F8FC00D3
:1036400070470020E249C96801F0010109B1012079
:103650000CE0DF49C96801F0100109B1032005E061
:10366000DB49C96801F0040101B10220704770B55F
:103670000546012400BFFFF7E4FF04466D1E012C40
:1036800001D1002DF7D1012C00D10424204670BDBA
:1036900070B504464FF47020FFF7E9FF0546B5B951
:1036A000CB48006940F00200C949086108464461FE
:1036B000006940F0400008614FF47020FFF7D7FF29
:1036C0000546C348006920F00200C1490861284648
:1036D00070BD10B54FF47020FFF7C9FF0446ACB9B8
:1036E000BB48006940F00400B94908610846006918
:1036F00040F0400008614FF47020FFF7B8FF044627
:10370000B348006920F00400B1490861204610BDAB
:1037100070B504460D464FF47020FFF7A8FF06462B
:103720008EB9AB48006940F00100A94908612560E5
:103730004FF47020FFF79BFF0646A548006920F074
:103740000100A3490861304670BD70B504460D46BE
:103750004FF47020FFF78BFF06468EB99C48006936
:1037600040F001009A49086125804FF47020FFF76E
:103770007EFF06469648006920F0010094490861E2
:10378000304670BD9248006900F4007020B991483D
:103790008F4988609048886070478D48006920F4A0
:1037A00000708B49086170478948006940F40050F7
:1037B0008749086170478648C06900F00600704775
:1037C00070B5FFF7F8FF06464FF47020FFF74FFF84
:1037D00005460EB9A52405E0022E01D1BB2401E067
:1037E000CC24052545BB7A48006940F02000784983
:1037F00008610846006940F0400008614FF47020FD
:10380000FFF735FF0546C5B97148006920F0200073
:103810006F4908610846006940F0100008616F4870
:1038200004704FF47020FFF722FF054668480069D6
:1038300020F010006649086107E0042D05D06448B7
:10384000006920F0200062490861284670BD7CB5FF
:1038500006464FF47020FFF70AFF0546002408E0F3
:103860005F4901EB440090F800080DF80400601C6B
:10387000C4B2062CF4D3F043C0B28DF804006FEA52
:103880001620C0B28DF80500002D3DD150480069CA
:1038900040F020004E4908610846006940F04000B1
:1038A00008614FF47020FFF7E2FE054635BB48483B
:1038B000006920F02000464908610846006940F090
:1038C0001000086100240FE01DF80400444A02EBD8
:1038D000440181F800084FF47020FFF7C8FE054648
:1038E00005B103E0601CC4B2062CEDD300BF38481C
:1038F000006920F010003649086105E0344800698D
:1039000020F020003249086128467CBD7CB506467F
:103910004FF47020FFF7ABFE0546002408E0304965
:1039200001EB440090F800080DF80400601CC4B2DC
:10393000062CF4D38DF80060002D3DD12448006999
:1039400040F02000224908610846006940F040002C
:1039500008614FF47020FFF78AFE054635BB1C480E
:10396000006920F020001A4908610846006940F00B
:103970001000086100240FE01DF80400184A02EB53
:10398000440181F800084FF47020FFF770FE0546EF
:1039900005B103E0601CC4B2062CEDD300BF0C4897
:1039A000006920F010000A49086105E00848006934
:1039B00020F020000649086128467CBD7CB50646FB
:1039C0004FF47020FFF753FE0546002413E000007B
:1039D0000020024023016745AB89EFCD00F8FF1FAF
:1039E00000F0FF1F704901EB440090F800080DF84B
:1039F0000400601CC4B2062CF4D346F088008DF895
:103A00000100002D3DD16948006940F02000674960
:103A100008610846006940F0400008614FF47020DA
:103A2000FFF725FE054635BB6048006920F0200001
:103A30005E4908610846006940F0100008610024F2
:103A40000FE01DF80400584A02EB440181F8000819
:103A50004FF47020FFF70BFE054605B103E0601C34
:103A6000C4B2062CEDD300BF5048006920F010000E
:103A70004E49086105E04D48006920F020004B499F
:103A8000086128467CBD7CB506464FF47020FFF7E0
:103A9000EEFD0546002408E0434901EB440090F8A0
:103AA00000080DF80400601CC4B2062CF4D3F0B278
:103AB0008DF80200300A8DF80300002D3DD13B48FF
:103AC000006940F02000394908610846006940F06B
:103AD000400008614FF47020FFF7C9FD054635BB73
:103AE0003248006920F0200030490861084600692A
:103AF00040F01000086100240FE01DF804002A4A7D
:103B000002EB440181F800084FF47020FFF7AFFD8D
:103B1000054605B103E0601CC4B2062CEDD300BF1E
:103B20002248006920F010002049086105E01F4884
:103B3000006920F020001D49086128467CBD1B4813
:103B4000C069C0F3072070471848C069000C70476F
:103B50001648006A80B27047144909690143134A44
:103B600011617047114909698143104A1161704719
:103B7000014600200D4AD2680A4002B10120704778
:103B80000A49C9680143094AD160704701460020CB
:103B9000064AD2680A4002B1012070470349C96849
:103BA0000143024AD160704700F0FF1F002002402D
:103BB00000203049086070474AF6AA202D49086065
:103BC00070474CF6CC402B490860704710B5014651
:103BD000294B002245F25550264C206000BF254855
:103BE000C06800F00402581E031E01D0002AF6D15E
:103BF0000AB1002010BDC1F30B001E4C2061012052
:103C0000F8E730B502460B461B4C002145F25550F3
:103C1000184D286000BF1748C06800F00101601E01
:103C2000041E01D00029F6D109B1002030BD114891
:103C30004360114C00BF0F48C06800F00201601ED5
:103C4000041E01D00029F6D109B10020EEE7C2F32D
:103C50000B00084DA8604AF6AA2028600120E5E77D
:103C600001460448C068084008B1012070470020A0
:103C7000FCE7000000300040FFFF0F0010B50446D5
:103C80007349601A8C4220D006DCB4F1904F0AD000
:103C900070482044A0BB0FE0B0F5806F1ED0B0F597
:103CA000406F2ED123E040F6112000F0D7F940F606
:103CB000112000F0E1F925E040F6122000F0CEF9E5
:103CC00040F6122000F0D8F91CE040F6132000F076
:103CD000C5F940F6132000F0CFF913E040F61420A8
:103CE00000F0BCF940F6142000F0C6F90AE040F6F6
:103CF000162000F0B3F940F6162000F0BDF901E0FF
:103D0000FFE700BF00BF10BDF0B504460D461646E4
:103D10002168E268002019E0012787401F409FB119
:103D20004FEA400C032707FA0CF7B943470005FA9E
:103D300007F739434FEA400C032707FA0CF7BA4359
:103D4000470006FA07F73A43471CB8B21028E3D3F6
:103D50002160E260F0BDF0B50C461546012C03D1A0
:103D600046681E43466002E046689E43466082689D
:103D700000210DE001268E401E403EB14F0003267B
:103D8000BE40B2434E0005FA06F632434E1CB1B2B5
:103D90001029EFD38260F0BD816170478162704766
:103DA0000AB1816100E0816270474161704702465B
:103DB0001069084008B1012070470020FCE7014667
:103DC000086980B2704702465069084008B1012076
:103DD00070470020FCE70146486980B27047F0B5A3
:103DE00003461C6A5D6A00200DE0012686401640ED
:103DF0003EB187000F26BE40B443860001FA06F6A6
:103E00003443461CB0B20828EFD3082011E0012645
:103E1000864016405EB1A0F10806B7000F26BE40EE
:103E2000B543A0F10806B60001FA06F63543461C74
:103E3000B0B21028EBD31C625D62F0BD4FF480324B
:103E40000A43C261C161C261C269C26970470000B0
:103E50000008004800FCFFB743490143434A116092
:103E60007047F0B50B460021002400253F4E366810
:103E700006F4E066B6F5E06F02D100BF042526E047
:103E80003A4E366806F4E066B6F5C06F02D10124FA
:103E900003251CE0354E366806F4E066B6F5A06FE3
:103EA00002D10224022512E0304E366806F4E066A4
:103EB000B6F5806F02D10324012508E02B4E366849
:103EC00006F4E066B6F5407F01D104240025C4F174
:103ED000040603FA06F1C5F104070F26FE4016405A
:103EE00031430901224E315400F01F070126BE4024
:103EF0004711BF0007F1E027C7F80061F0BD00F0EF
:103F00001F02012191401B4A431142F823107047C0
:103F1000194A0A400243154B1B1F1A607047134988
:103F2000091D09680143114A121D116070470F49AC
:103F3000091D096881430D4A121D1160704704284C
:103F400008D14FF0E021096941F004014FF0E0226F
:103F5000116107E04FF0E021096921F004014FF001
:103F6000E0221161704700000000FA050CED00E04E
:103F700000E400E080E100E080FFFF1FFD480068F2
:103F800040F00100FB49086000BFFA48006800F0FB
:103F900002000028F9D0F7484068F7490840F54981
:103FA000486008464068F5490840F24948600846BC
:103FB000406820F44000486008460068F049084026
:103FC000EC4908600846C06A20F00F00C862084645
:103FD000006B40F243118843E64908630846406B92
:103FE00020F001004863002088607047E14A02EB3E
:103FF0009011096800F01F0301229A401143DD4B24
:1040000003EB901211607047DA4A02EB90110968D5
:1040100000F01F0301229A409143D64B03EB90120C
:1040200011607047D34A02EB9011096800F01F033A
:1040300001229A401143CF4B03EB9012116070475D
:10404000CC4A02EB9011096800F01F0301229A404C
:104050009143C84B03EB901211607047C54A02EBC5
:104060009011096800F01F0301229A401143C14BCF
:1040700003EB901211607047BE4A02EB9011096881
:1040800000F01F0301229A409143BA4B03EB9012B8
:1040900011607047B748006A40F48030B549086243
:1040A0007047B448006A20F48030B2490862704713
:1040B00001460020AF4A506820F0030041EA0002A8
:1040C000AC4B5A607047AB48406800F00C0070473A
:1040D00001460020A74A506820F0F00041EA0002A3
:1040E000A44B5A60704701460020A24A506820F451
:1040F000E06041EA00029F4B5A6070470146002091
:104100009C4A506820F4605041EA0002994B5A6082
:1041100070479849496821F44041964A51601146D8
:10412000096B21F480711163052839D2DFE800F0B2
:10413000030A14202C008F49096B21F480718D4AE9
:1041400011632EE08B4949688A4A51601146096B18
:1041500041F48071116324E08649496841F480414B
:10416000844A51601146096B41F48071116318E073
:104170008049496841F400417E4A51601146096B0B
:1041800041F4807111630CE07A49496841F440417F
:10419000784A51601146096B41F48071116300E067
:1041A00000BF00BF70477349496821F44001714A5C
:1041B00051601146496801435160704710B50022B3
:1041C0006C4B5A6822F0774242EA00030B43694C79
:1041D000636010BD674A52686A4B1A40654B5A606B
:1041E0001A46526840EA01031A43624B5A6070470C
:1041F0006049096B21F003015E4A11631146096BA6
:104200000143116370475B49096B21F04001594A32
:1042100011631146096B0143116370475549096ADF
:1042200021F44071534A11621146096A0143116237
:10423000704700214F4AD16A21F00F0141EA000284
:104240004C4BDA6270474B49096A21F01801494A20
:1042500011621146096A0143116270470146454ADD
:1042600002EB9110006801F01F0301229A401040F8
:1042700008B1012070470020FCE73E48406A40F04A
:1042800080703C494862704701463A48806808405F
:1042900008B1012070470020FCE7364989680143D6
:1042A000344A91607047334989680143314A9160CB
:1042B00070473049896881432E4A91607047F0B554
:1042C0000646002400270025B6F5006F1DD005DC4A
:1042D00076B3102E09D0182E7BD169E0B6F5106F99
:1042E00054D0B6F5506F74D132E004E01120FFF7DE
:1042F000B5FF0546641C15B9B4F5006FF6D1112061
:10430000FFF7ACFF00B1012764E005E040F60100D3
:10431000FFF7A4FF0546641C1DB96FF07C40844282
:10432000F4D140F60100FFF799FF00B1012751E0F9
:1043300004E00120FFF792FF0546641C15B9B4F5AF
:10434000A06FF6D10120FFF789FF00B1012741E0FE
:1043500005E040F60150FFF781FF0546641C15B9E2
:1043600009488442F5D140F60150FFF777FF00B1CC
:1043700001272FE0001002400C00FF08FFFFC0F7EC
:10438000FFFFF2FEFFFFC2F7FFFF0F0005E040F660
:104390000110FFF763FF0546641C15B9F848844215
:1043A000F5D140F60110FFF759FF00B1012711E0E8
:1043B00004E01920FFF752FF0546641C15B9F048C8
:1043C0008442F6D11920FFF749FF00B1012701E02F
:1043D000FFE700BF00BF3846F0BDEA4A02EB90118C
:1043E000096800F01F0301229A401143E54B03EBDB
:1043F000901211607047E34A02EB9011096800F0D7
:104400001F0301229A409143DE4B03EB901211608F
:1044100070470146B1F5006F18D005DC09B31029CB
:1044200009D0182921D11FE0B1F5106F1BD0B1F5CB
:10443000506F1AD116E0D34A1068126822F4803205
:10444000D04B1A6040F480221A600FE0CD4A106A07
:10445000126A22F00102CB4B1A6240F004021A6287
:1044600004E000BF00BF00BF00E000BF00BF704716
:104470000146B1F5006F18D005DC09B3102909D049
:10448000182921D11FE0B1F5106F1BD0B1F5506F85
:104490001AD116E0BB4A1068126822F48032B94B78
:1044A0001A6020F480221A600FE0B64A106A126A7D
:1044B00022F00102B34B1A6220F004021A6204E0F7
:1044C00000BF00BF00BF00E000BF00BF7047AD48A5
:1044D000006840F40020AB4908607047A9480068B4
:1044E00020F40020A749086070470021A54A116800
:1044F00021F0F80141EAC002A24B1A607047002186
:10450000A04A516B21F0F80141EAC0029D4B5A6369
:1045100070479D48006800209A49C1F800019A48F8
:1045200000689A4908439749C1F8000170479649C5
:104530003431096821F00701924AC2F8341111465A
:10454000D1F834110143C2F8341170478E49383123
:10455000096821F001018B4AC2F838111146D1F8DF
:1045600038110143C2F8381170472DE9F04F8FB070
:1045700004464FF0000CE046002000220025814652
:10458000CDF838900021CDF83490CDF83090CDF8AA
:104590002C900023CDF82890CDF82490CDF82090D1
:1045A000002600270FF2E81999E8004CD9F80C9082
:1045B000CDE905BECDF810A0CDF81C900FF2D41AAD
:1045C000DAE9009ACDE9029A0FF2C81ADAE9009AFC
:1045D000CDE9009ADFF8AC91D9F80490C9F3810CC9
:1045E000BCF1000F06D0BCF1010F05D0BCF1020FE9
:1045F0003FD103E06A4A3EE0694A3CE0DFF884913B
:10460000D9F80490C9F38343DFF87891D9F804907E
:10461000C9F3C069CDF82890DDF82890B9F1000FF2
:1046200001D0113300E09B1CDFF85891D9F80490B9
:10463000C9F30049CDF82490DDF82490B9F1000FBA
:1046400012D0DFF84091D9F82C9009F00F0909F148
:104650000109CDF82090DFF848A1DDF82090BAFBE1
:10466000F9F909FB03F203E0DFF8389103FB09F2E3
:1046700001E04B4A00BF00BFDFF80891D9F8049071
:10468000C9F303160DF1100919F8067022FA07F59F
:10469000DFF8F090D9F80490C9F302260DF108096B
:1046A00019F8067025FA07F9CDF83890DFF8D4909C
:1046B000D9F80490C9F3C2261DF8067025FA07F14F
:1046C000072C5CD2DFE804F00406080A0C477200ED
:1046D00010469FE028469DE00E989BE0084699E032
:1046E000DFF8A090D9F8309009F48079B9F5807F8F
:1046F00004D0DFF8B490CDF834902AE0DFF884904D
:10470000D9F80490C9F38138B8F1000F09D0B8F195
:10471000010F0BD0B8F1020F0DD0B8F1030F16D175
:1047200010E04FEA5109CDF8349011E04FEA9109B9
:10473000CDF834900CE04FF00609B1FBF9F9CDF853
:10474000349005E04FEAD109CDF8349000E000BF85
:1047500000BF0D985EE0DFF82C90D9F8309009F09A
:104760004009B9F1400F04D048F21209CDF8309059
:1047700003E04FF40049CDF830900C984AE048E04F
:10478000FFFF0F0000100240001102404D3C2B1AA9
:1047900000000000000000000102030406070809F1
:1047A00000127A0000093D00809FD500DFF86C9070
:1047B000D9F8309009F00309B9F1000F01D10B913C
:1047C00025E0DFF85890D9F8309009F00309B9F1E5
:1047D000010F01D10B921AE0DFF84090D9F8309028
:1047E00009F00309B9F1020F04D14FF40049CDF8E3
:1047F0002C900CE0DFF82490D9F8309009F00309F0
:10480000B9F1030F03D1DFF81890CDF82C900B9875
:1048100000E000BF00BF0FB0BDE8F08F0010024005
:1048200000127A0010B50446FE49601A8C4217D077
:104830000CDCB4F1804F1CD0FB48204410B3B0F521
:10484000406F28D0B0F5E05F52D12DE0B0F5A05F09
:1048500033D0B0F5C05F39D0B0F5E05F48D13EE06D
:1048600040F20B30FFF7FAFB40F20B30FFF704FC8D
:104870003FE04FF48060FFF7F1FB4FF48060FFF7FB
:10488000FBFB36E040F20140FFF7E8FB40F201405D
:10489000FFF7F2FB2DE040F20440FFF7DFFB40F2B0
:1048A0000440FFF7E9FB24E04FF48160FFF7D6FBFB
:1048B0004FF48160FFF7E0FB1BE04FF44470FFF71B
:1048C000CDFB4FF44470FFF7D7FB12E040F21130FC
:1048D000FFF7C4FB40F21130FFF7CEFB09E040F2D6
:1048E0001230FFF7BBFB40F21230FFF7C5FB00E0D0
:1048F00000BF00BF10BD00210180418081804FF6C4
:10490000FF7181600021C180017370470A88826253
:10491000C44A904206D0B0F1804F03D0C24A5242FE
:1049200090420BD1026822F07002026002684B884C
:104930001A43026002688B881A4302608A68C26266
:10494000B84A904212D0B0F1804F0FD0B64A5242CE
:1049500090420BD0B54A904208D0B54A904205D05B
:10496000B44A904202D0B44A904207D1026822F47D
:10497000407202600268CB881A430260A94A9042E2
:1049800008D0AB4A904205D0AA4A904202D0AA4A27
:10499000904201D10A7B0263426942F00102426106
:1049A0007047016841F0010101607047016821F022
:1049B000010101607047016841F0800101607047AA
:1049C000016821F0800101607047016821F0020157
:1049D00001607047016841F00201016070470268A0
:1049E00022F06002026002680A43026070470168B8
:1049F00021F0100101607047016841F01001016071
:104A0000704781621AB9436943F0010343617047FB
:104A100001637047C16270474162704701460020E0
:104A2000486A7047014600208A6A90B2704721B9EF
:104A3000026842F00802026005E0012903D1026821
:104A400022F008020260704721B9026842F00402B5
:104A5000026005E0012903D1026822F0040202602D
:104A60007047012904D1826842F00802826004E0A4
:104A700019B9826822F0080282607047C2680A434E
:104A8000C2607047C2688A43C26070470246D068FD
:104A900000EA01031069084010B10BB10120704712
:104AA0000020FCE7CA4302617047024610690840D3
:104AB00008B1012070470020FCE7CA43026170473B
:104AC000C2680A43C2607047C2688A43C2607047C6
:104AD00021B9426842F00802426005E0012903D191
:104AE000426822F008024260704710B5836C41F6BC
:104AF0001F74A3438364836C41EA020423438364E9
:104B000010BD42690A434261704700210160416063
:104B100001814181C160016141617047D1E9002398
:104B20001A430B891A434B891A43CB681A430B6902
:104B30001A434B691A4342647047416C41F48051F7
:104B400041647047416C21F4805141647047416C6D
:104B500041F4804141647047416C21F480414164DB
:104B60007047012904D1426C42F40042426403E0E0
:104B7000426C22F4004242647047012904D1426829
:104B800042F00102426003E0426822F0010242600A
:104B9000704721B9426822F00402426005E0012911
:104BA00003D1426842F00402426070470021016074
:104BB0008180C180018141818181704710B531B10F
:104BC000012953D002297DD003297CD1D9E0036A81
:104BD00023F001030362836923F003038361036A03
:104BE000146823430362036A23F002030362036A27
:104BF000D488234303620B4B984208D00C4B984255
:104C000005D00C4B984202D00B4B98422DD1036A31
:104C100023F004030362036A948823430362036A54
:104C20000CE00000002C014000FCFFBF0020004011
:104C300000400140004401400048014023F00803C7
:104C40000362036A148923430362436823F4807375
:104C500043604368548923434360436823F40073EB
:104C600043604368948923434360AEE0036A23F0C2
:104C700010030362836923F440738361036A146839
:104C800043EA04130362036A23F020030362036A06
:104C9000D48843EA04130362F84B984226D1036A8E
:104CA00023F040030362036A948843EA0413036217
:104CB000036A23F080030362036A148943EA04133E
:104CC000036201E01FE07FE0436823F480634360F8
:104CD0004368548943EA84034360436823F40063D0
:104CE00043604368948943EA84034360E44B9842F9
:104CF00008D1436823F4806343604368548943EADE
:104D00008403436061E0036A23F480730362C36930
:104D100023F00303C361036A146843EA04230362B4
:104D2000036A23F400730362036AD48843EA04230A
:104D30000362D24B984223D1036A23F48063036257
:104D4000036A948843EA04230362036A23F400633A
:104D50000362036A148943EA04230362436823F469
:104D6000805343604368548943EA041343604368B3
:104D700023F4005343604368948943EA0413436077
:104D800023E0036A23F480530362C36923F440736E
:104D9000C361036A146843EA04330362036A23F4B9
:104DA00000530362036AD48843EA04330362B34BBB
:104DB000984208D1436823F4804343604368548990
:104DC00043EA8413436000E000BF00BF10BD31B16F
:104DD00001290CD0022913D0032922D118E08369BC
:104DE00023F0700383618369134383611AE083694D
:104DF00023F4E0438361836943EA0223836111E082
:104E0000C36923F07003C361C3691343C36109E03D
:104E1000C36923F4E043C361C36943EA0223C36166
:104E200000E000BF00BF704731B1012906D0022960
:104E300006D0032908D105E0426306E0826304E05E
:104E4000C26302E0026400E000BF00BF704731B1FE
:104E500001290CD0022913D0032922D118E083693B
:104E600023F0080383618369134383611AE0836934
:104E700023F400638361836943EA0223836111E0C1
:104E8000C36923F00803C361C3691343C36109E025
:104E9000C36923F40063C361C36943EA0223C361A6
:104EA00000E000BF00BF704731B101290CD00229DA
:104EB00013D0032922D118E0836923F0040383610E
:104EC0008369134383611AE0836923F480638361F8
:104ED000836943EA0223836111E0C36923F0040379
:104EE000C361C3691343C36109E0C36923F48063E9
:104EF000C361C36943EA0223C36100E000BF00BF8E
:104F0000704731B101290CD0022913D0032922D1D5
:104F100018E0836923F0800383618369134383610D
:104F20001AE0836923F400438361836943EA02231F
:104F3000836111E0C36923F08003C361C369134334
:104F4000C36109E0C36923F40043C361C36943EA51
:104F50000223C36100E000BF00BF704731B10129E7
:104F60000CD0022913D0032923D119E0036A23F0BE
:104F700002030362036A134303621BE0036A23F024
:104F800020030362036A43EA0213036212E0036A26
:104F900023F400730362036A43EA0223036209E015
:104FA000036A23F400530362036A43EA0233036291
:104FB00000E000BF00BF704731B101290CD00229C9
:104FC00013D0032923D119E0036A23F008030362F5
:104FD000036A134303621BE0036A23F08003036246
:104FE000036A43EA0213036212E0036A23F40063D4
:104FF0000362036A43EA0223036209E0036A23F4BB
:1050000000430362036A43EA0233036200E000BF25
:1050100000BF704731B101290CD0022913D00329F8
:1050200023D119E0036A23F001030362036A1343E7
:1050300003621BE0036A23F010030362036A43EA7E
:105040000213036212E0036A23F480730362036AAB
:1050500043EA0223036209E0036A23F480530362F4
:10506000036A43EA0233036200E000BF00BF7047F7
:1050700041B101290ED002291ED114E0002C0140BB
:1050800000400140036A23F004030362036A1343F0
:10509000036212E0036A23F040030362036A43EAF7
:1050A0000213036209E0036A23F480630362036A64
:1050B00043EA0223036200E000BF00BF7047002103
:1050C00001800121418000218180C180704731B180
:1050D00001290CD0022913D0032922D118E08369B9
:1050E00023F00C0383618369134383611AE08369AE
:1050F00023F440638361836943EA0223836111E0FF
:10510000C36923F00C03C361C3691343C36109E09E
:10511000C36923F44063C361C36943EA0223C361E3
:1051200000E000BF00BF704770B504460E4615464C
:1051300036B1012E26D0022E48D0032E7DD168E054
:10514000206A20F001002062206A20F00A0020621C
:10515000206A298808432062A06920F00300A0612A
:10516000A06969880843A061A06920F0F000A061EF
:10517000A069E98840EA0110A061206A40F00100BE
:1051800020626DE0206A20F010002062206A20F08A
:10519000A0002062206A298840EA01102062A069EC
:1051A00020F44070A061A069698840EA0120A061F4
:1051B000A06920F47040A061A069E98840EA01304C
:1051C000A061206A40F01000206249E0206A20F4CB
:1051D00080702062206A20F420602062206A298882
:1051E00040EA01202062E06920F00300E061E0690C
:1051F00069880843E061E06920F0F000E061E0695F
:10520000E98840EA0110E061206A40F48070206281
:1052100026E0206A20F480502062206A20F420409A
:105220002062206A298840EA01302062E06920F487
:105230004070E061E069698800E010E040EA012028
:10524000E061E06920F47040E061E069E98840EAEB
:105250000130E061206A40F48050206200E000BF2D
:1052600000BFAA8831462046FFF731FF70BD0246D5
:10527000002031B1012906D0022906D0032908D126
:1052800005E0506B06E0906B04E0D06B02E0106C20
:1052900000E000BF00BF70472DE9F04104460E4614
:1052A00015460027B846288808B9022700E00027DD
:1052B0006888012802D14FF0020801E04FF0010890
:1052C000002E4CD1206A20F001002062206A20F0DC
:1052D0000A002062206A298808432062A06920F021
:1052E0000300A061A06969880843A061A06920F05B
:1052F000F000A061A069E98840EA0110A061206A7D
:1053000040F001002062AA8800212046FFF7DFFE5E
:10531000206A20F010002062206A20F0A0002062A5
:10532000206A40EA07102062A06920F44070A06162
:10533000A06940EA0820A061A06920F47040A06143
:10534000A069E98840EA0130A061206A40F01000BD
:105350002062AA8801212046FFF7B9FE4CE0206AAE
:1053600020F010002062206A20F0A0002062206A55
:10537000298840EA01102062A06920F44070A061F1
:10538000A069698840EA0120A061A06920F470400A
:10539000A061A069E98840EA0130A061206A40F07C
:1053A00010002062AA8801212046FFF790FE206AA3
:1053B00020F001002062206A20F00A002062206AAA
:1053C00038432062A06920F00300A061A06940EA90
:1053D0000800A061A06920F0F000A061A069E98840
:1053E00040EA0110A061206A40F001002062AA8812
:1053F00000212046FFF76BFEBDE8F08121B942682D
:1054000042F08002426005E0012903D1426822F0A7
:10541000800242607047826822F070028260826877
:105420000A4382607047426822F07002426042681C
:105430000A4342607047826822F0070282608268F5
:105440000A438260704721B9826842F0800282601C
:1054500005E0012903D1826822F080028260704752
:1054600030B5846824F43F448460846841EA0205CE
:105470002C438460846844EA0324846030BD30B5E2
:10548000846824F00704846084680C438460846921
:1054900040F20335AC438461846940F201152C432A
:1054A0008461046A24F00A040462046A24F0A004FB
:1054B0000462046A42EA03152C43046230BD816829
:1054C00021F007018160704710B503460C46214664
:1054D0001846FFF7A0FF986820F0070098609868CA
:1054E00040F00700986010BD70B504460E461546A2
:1054F000602E20D1206A20F010002062206A20F067
:10550000A0002062206A40EA05102062A06920F411
:105510004070A061A06940F48070A061A06920F48F
:105520007040A061A06940EA0330A061206A40F0A9
:10553000100020621EE0206A20F001002062206A34
:1055400020F00A002062206A28432062A06920F02F
:105550000300A061A06940F00100A061A06920F0F3
:10556000F000A061A06940EA0310A061206A40F049
:105570000100206231462046FFF74DFFA06820F071
:105580000700A060A06840F00700A06070BDF0B503
:1055900004460D4616461F463B46324629462046DF
:1055A000FFF75EFFA06820F07700A060A06840F0E1
:1055B0007700A060F0BDF0B504460D4616461F46C4
:1055C0003B46324629462046FFF74AFFA06840F492
:1055D0008040A060F0BD816821F480418160704707
:1055E0000165704710B50446F848204458B1B0F53D
:1055F000744F11D140F20E30FEF730FD40F20E3004
:10560000FEF73AFD09E040F21140FEF727FD40F2B7
:105610001140FEF731FD00E000BF00BF10BD2DE9D5
:10562000F04704460D460027B846B9460026E7482D
:10563000204438B1B0F5744F09D10620FEF795FF2C
:10564000074605E00220FEF790FF074600E000BF96
:1056500000BF206800F4004070B1780000EB5500F6
:10566000B0FBF5F64FF6F07006EA0008C6F3420903
:1056700048EA0900E0600CE007EB5500B0FBF5F6E6
:105680004FF6F07006EA000806F00F0948EA090034
:10569000E060BDE8F087026822F001020260026863
:1056A00022F4C062026002680A4302607047026826
:1056B00022F001020260026822F480520260026855
:1056C0000A4302607047026822F0010202604268E9
:1056D00022F44052426042680A43426070470168C7
:1056E00041F0010101607047016821F00101016092
:1056F0007047026822F00802026002680A430260F2
:105700007047026822F00402026002680A430260E5
:105710007047C1F30802826270470146486AC0F3CD
:1057200008007047026822F001020260426822F419
:1057300000224260426801F400231A43426070472D
:10574000026822F00102026008292DD2DFE801F090
:1057500004091D0E22132718426842F48022426079
:1057600023E0426822F4802242601EE0426822F474
:105770000032426019E0426822F48032426014E054
:10578000426822F4004242600FE0426842F4003274
:1057900042600AE0426842F48032426005E04268BA
:1057A00042F40042426000E000BF00BF7047016861
:1057B00021F001010160816821F48051816070470E
:1057C000016821F001010160816841F4805181602C
:1057D0007047026822F001020260026822F400426F
:1057E000026002680A4302607047026822F0010208
:1057F0000260826822F40062826082680A438260EA
:105800007047416841F4801141607047416821F45C
:10581000801141607047426822F4C00242604268D1
:105820000A4342607047016841F4005101607047CB
:10583000016821F4005101607047026822F0010202
:105840000260026822F40062026002680A43026099
:105850007047026822F001020260426822F01002E2
:105860004260426801F010031A43426070470268C8
:1058700022F001020260426822F07F4242604268E8
:105880004FF07F4303EA01631A4342607047416867
:1058900041F4000141607047416821F4000141601A
:1058A0007047426902F07F42426142690A434261A5
:1058B0007047016821F001010160416841F48041B5
:1058C00041607047016821F001010160416821F4E5
:1058D000804141607047026822F001020260426824
:1058E00001F020031A4342607047016821F0010172
:1058F0000160816841F0080181607047016821F012
:1059000001010160816821F0080181607047016830
:1059100021F001010160416841F40061416070477C
:10592000016821F001010160416821F400614160DA
:10593000704730B5046824F001040460446824F41E
:10594000E0644460446801F480752C43446044681A
:1059500002F400752C434460446803F480652C43D2
:10596000446030BD016821F001010160816841F0AF
:10597000200181607047016821F0010101608168A8
:1059800021F0200181607047016821F00101016070
:10599000816841F0100181607047016821F00101C8
:1059A0000160816821F0100181607047026822F077
:1059B00001020260026922F47F42026102694FF42F
:1059C0007F4303EA01231A430261704700BCFFBF13
:1059D000426922F07F42426142694FF07F4303EA0D
:1059E00001631A4342617047026822F001020260BB
:1059F000826822F46022826082684FF4602303EAA6
:105A000041431A4382607047016821F0010101603F
:105A1000816841F0020181607047016821F0010155
:105A20000160816821F0020181607047026822F004
:105A300001020260826801F004031A438260704729
:105A4000026822F001020260026922F0FF02026194
:105A500002690A4302617047026822F00102026093
:105A6000826822F48072826082680A438260704792
:105A7000026822F001020260826822F400728260F1
:105A800082680A4382607047016821F00101016069
:105A9000816841F4804181607047016821F0010113
:105AA0000160816821F4804181607047026822F0C2
:105AB00001020260026822F07872026002684FF010
:105AC000787303EA41531A4302607047026822F078
:105AD00001020260026822F4F812026002684FF4C8
